:020000040000FA
:06000000E6EF06F012001D
:0A0006000100F80D0000FA010000EF
:0400100001000000EB
:0C001400DACFE4FFE2CFDAFFE652E5525B
:10002000E5CFDAFF1100D9CFE6FFE1CFD9FF1A0EF5
:10003000E126DE6ADD6A040EDB6A050EDB6ADECFCE
:1000400014F0DDCF15F0D890155004E6EB0E145CDB
:10005000000E155801E360D2D950040FE96EDACFD3
:10006000EAFFEE50ED1001E057D2DECFE9FFDDCF21
:10007000EAFF000EE926010EEA22EF50240801E013
:10008000BAD0DECFE9FFDDCFEAFF030EE926000E8E
:10009000EA22000EE926010EEA22EF50470801E0AD
:1000A000AAD0DECFE9FFDDCFEAFF040EE926000E7D
:1000B000EA22000EE926010EEA22EF50470801E08D
:1000C0009AD0DECFE9FFDDCFEAFF050EE926000E6C
:1000D000EA22000EE926010EEA22EF50410801E073
:1000E0008AD0010EE66E8AEC03F0E552010EE66E50
:1000F000E66E51EC04F0E552E552020EDB6A030EA7
:10010000DB6A020EDBCF14F0030EDBCF15F0D890C4
:10011000155004E60C0E145C000E15581BE2110E6F
:10012000E76E020EDBCFE9FF030EDBCFEAFFE750FD
:10013000E926000EEA22000EE926010EEA22EF501F
:10014000E66EB5EC03F0E552020EDB2A030E01E386
:10015000DB2AD7D7020EE66E010EE66E51EC04F0F4
:10016000E552E552020EDB6A030EDB6A020EDBCFBC
:1001700014F0030EDBCF15F0D890155004E60D0EE9
:10018000145C000E15581BE21E0EE76E020EDBCF4C
:10019000E9FF030EDBCFEAFFE750E926000EEA2273
:1001A000000EE926010EEA22EF50E66EB5EC03F0F0
:1001B000E552020EDB2A030E01E3DB2AD7D7020E3B
:1001C000E66E100EE66E51EC04F0E552E552470E75
:1001D000E66EB5EC03F0E552140EE66E050EE66E23
:1001E0006AEC04F0E552E552010EF36E040EF3CF13
:1001F000DBFF050EDB6ADECFE9FFDDCFEAFF000E95
:10020000E926010EEA22EF50240801E0BAD0DECF41
:10021000E9FFDDCFEAFF030EE926000EEA22000E19
:10022000E926010EEA22EF50470801E0AAD0DECF0E
:10023000E9FFDDCFEAFF040EE926000EEA22000EF8
:10024000E926010EEA22EF504C0801E09AD0DECFF9
:10025000E9FFDDCFEAFF050EE926000EEA22000ED7
:10026000E926010EEA22EF504C0801E08AD0010E87
:10027000E66E8AEC03F0E552010EE66EE66E51EC96
:1002800004F0E552E552020EDB6A030EDB6A020E51
:10029000DBCF14F0030EDBCF15F0D890155004E639
:1002A0000C0E145C000E15581BE2070EE76E020ED2
:1002B000DBCFE9FF030EDBCFEAFFE750E926000EB4
:1002C000EA22000EE926010EEA22EF50E66EB5ECB6
:1002D00003F0E552020EDB2A030E01E3DB2AD7D737
:1002E000020EE66E010EE66E51EC04F0E552E552A8
:1002F000020EDB6A030EDB6A020EDBCF14F0030E84
:10030000DBCF15F0D890155004E60C0E145C000EEF
:1003100015581BE2140EE76E020EDBCFE9FF030E49
:10032000DBCFEAFFE750E926000EEA22000EE926BD
:10033000010EEA22EF50E66EB5EC03F0E552020E34
:10034000DB2A030E01E3DB2AD7D7020EE66E100E7E
:10035000E66E51EC04F0E552E5524C0EE66EB5EC5B
:1003600003F0E552140EE66E050EE66E6AEC04F03C
:10037000E552E552010EF36E040EF3CFDBFF050EDE
:10038000DB6ADECFE9FFDDCFEAFF000EE926010ED2
:10039000EA22EF50240801E0BAD0DECFE9FFDDCF3A
:1003A000EAFF030EE926000EEA22000EE926010EFE
:1003B000EA22EF50520801E0AAD0DECFE9FFDDCFFC
:1003C000EAFF040EE926000EEA22000EE926010EDD
:1003D000EA22EF504D0801E09AD0DECFE9FFDDCFF1
:1003E000EAFF050EE926000EEA22000EE926010EBC
:1003F000EA22EF50430801E08AD0010EE66E8AEC53
:1004000003F0E552010EE66EE66E51EC04F0E552A3
:10041000E552020EDB6A030EDB6A020EDBCF14F03C
:10042000030EDBCF15F0D890155004E60C0E145CCB
:10043000000E15581BE2130EE76E020EDBCFE9FF2C
:10044000030EDBCFEAFFE750E926000EEA22000E9A
:10045000E926010EEA22EF50E66EB5EC03F0E55214
:10046000020EDB2A030E01E3DB2AD7D7020EE66E6B
:10047000010EE66E51EC04F0E552E552020EDB6A25
:10048000030EDB6A020EDBCF14F0030EDBCF15F098
:10049000D890155004E60D0E145C000E15581BE2A2
:1004A000200EE76E020EDBCFE9FF030EDBCFEAFF83
:1004B000E750E926000EEA22000EE926010EEA22A4
:1004C000EF50E66EB5EC03F0E552020EDB2A030EA8
:1004D00001E3DB2AD7D7020EE66E100EE66E51EC72
:1004E00004F0E552E552520EE66EB5EC03F0E5522B
:1004F000140EE66E050EE66E6AEC04F0E552E55267
:10050000010EF36E040EF3CFDBFF050EDB6ADF2A6C
:10051000010E01E3DB2A93D51A0EE15C02E2E16AE7
:10052000E552E16EE552E7CFD9FF1200D9CFE6FFE1
:10053000E1CFD9FFE552E7CFD9FF1200D9CFE6FFCF
:10054000E1CFD9FF150EE126DE6ADD6A020EDB6A15
:10055000030EDB6A0101F06BF16B300EF26FF36B8F
:10056000F46BF56BF66BF76B0F0EC16E640EE66EF7
:10057000E66A6AEC04F0E552E5522BEC03F0010E5A
:10058000E66EE66E51EC04F0E552E552DE6ADD6A95
:10059000DECFF6FFDDCFF7FFE80EF6260D0EF722D1
:1005A0000800F55013E0DECFF6FFDDCFF7FFE80ED1
:1005B000F6260D0EF7220800F550E66EB5EC03F0B6
:1005C000E552DF2A010E01E3DB2AE2D7DC0EE66EFC
:1005D000050EE66E6AEC04F0E552E552010EE66E99
:1005E0008AEC03F0E5520101F26BF36B010EF46F3C
:1005F000F56BF66BF76B330EE66EE66A3C0EE66E55
:10060000B3EC05F0E552E552E552F00EE66E000E51
:10061000E66E010EE66E30EC06F0E552E552E5526C
:1006200002DD0101F66BF76B4F0EAB16AC9ACF0EE5
:100630009D160A0EE66EE66A6AEC04F0E552E55293
:10064000DAD7150EE15C02E2E16AE552E16EE552AD
:06065000E7CFD9FF120004
:0A0656000101010EFA6FF00E931679
:1006600081169398939A92908198819A80900F0E18
:10067000E66EE66A6AEC04F0E552E552F00E811689
:10068000030E8112818A33EC05F0819A040EE66E26
:10069000E66A6AEC04F0E552E552F00E8116030EAC
:1006A0008112818A33EC05F0819A040EE66EE66AC7
:1006B0006AEC04F0E552E552F00E8116030E811249
:1006C000818A33EC05F0819A040EE66EE66A6AECE4
:1006D00004F0E552E552F00E81168182818A33ECF6
:1006E00005F0819A280EE66E15D8E552080EE66EE2
:1006F00011D8E552010EE66E0DD8E552060EE66EF3
:1007000009D8E5520F0EE66E05D8E5520101FA6BE5
:1007100000D01200D9CFE6FFE1CFD9FF0101FA05E1
:1007200002E137EC05F00101FA5102E137EC05F086
:100730008198819A8090F00E8116FE0EDB380F0BA7
:100740000F0B8112818A33EC05F0819AF00E81162D
:10075000FE0EDB500F0B8112818A33EC05F0819A7B
:1007600000D0E552E7CFD9FF1200D9CFE6FFE1CFA5
:10077000D9FF37EC05F080908188819AF00E8116C0
:10078000FE0EDB380F0B0F0B8112818A33EC05F064
:10079000819AF00E8116FE0EDB500F0B8112818ABA
:1007A00033EC05F0819A00D0E552E7CFD9FF120073
:1007B00081988080819A0F0E9312F00E8116818AA3
:1007C00033EC05F00101FA050DE181B6FED7819AFF
:1007D00033EC05F0818A33EC05F0819AF00E931624
:1007E000000E0FD0FA510DE181B6FED7819A33EC9D
:1007F00005F0818A33EC05F0819AF00E9316000E15
:1008000000D01200D9CFE6FFE1CFD9FFE652DF6A70
:1008100037EC05F081988080819A0F0E9312818ABF
:1008200033EC05F08138F00BF00BDF6E819A33EC7E
:1008300005F0818A33EC05F00F0E8114DF12819AE6
:10084000F00E93167F0EDF1400D0E552E552E7CF8D
:10085000D9FF1200D9CFE6FFE1CFD9FFE652DF6A18
:1008600037EC05F081888080819A0F0E9312818A7F
:1008700033EC05F08138F00BF00BDF6E819A33EC2E
:1008800005F0818A33EC05F00F0E8114DF12819A96
:10089000F00E9316DF5000D0E552E552E7CFD9FFB6
:1008A0001200D9CFE6FFE1CFD9FFE652FD0EDB04FF
:1008B00003E0400EDF6E01D0DF6AFE0EDB04DF26B0
:1008C000800EDF10E66E26DFE552E552E552E7CFF7
:0408D000D9FF12003A
:0C08D400D9CFE6FFE1CFD9FF080EE126E6
:1008E000FD0EDBCF14F0FE0EDBCF15F0030ED8901B
:1008F00014361536E806FBE1000E14C0DFFF010ECA
:1009000015C0DBFF020EDB6A030EDB6AD9CFE9FFFD
:10091000DACFEAFFEECF06F0EECF07F0EECF08F029
:10092000EFCF09F0190E0B6E0C6A0D6A0E6AF8EC27
:1009300005F002C006F003C007F004C008F005C0CF
:1009400009F0020E0B6E0C6A0D6A0E6A5FEC06F07F
:1009500006C0DEFF07C0DEFF08C0DEFF09C0DDFF06
:10096000DD52DD52040EDB6A050EDB6A060EDB6A21
:10097000070EDB6A040EDBCF14F0050EDBCF15F09B
:10098000060EDBCF16F0070EDBCF17F0D9CFE9FF4D
:10099000DACFEAFFEE50145CEE501558EE501658C0
:1009A000EE5017580BE2D950040FE96EDACFEAFF88
:1009B000EE2A000EEE22EE22EE22DCD7080EE15CDB
:1009C00003E200D0E16AE552E16EE552E7CFD9FFDC
:1009D0001200D9CFE6FFE1CFD9FF040EE126080EC1
:1009E000086E096AFD0EDBCF0DF0FE0EDBCF0EF0B8
:1009F000A2EC06F006C0DEFF07C0DDFF500E146E4D
:100A0000156A14C00DF015C00EF0DECF08F0DDCF72
:100A100009F0C0EC06F008C0DEFF09C0DDFF020EE1
:100A2000DB6A030EDB6A020EDBCF14F0030EDBCFB2
:100A300015F0DECF16F0DDCF17F01650145C17500E
:100A4000155806E2020EDB2A030E01E3DB2AEBD780
:100A5000040EE15C03E200D0E16AE552E16EE5528A
:100A6000E7CFD9FF12000000000000001200D9CF2C
:100A7000E6FFE1CFD9FF040EE126960EDE6EDD6AB9
:100A8000020EDB6A030EDB6A020EDBCF14F0030EEC
:100A9000DBCF15F0DECF16F0DDCF17F01650145C6B
:100AA0001750155806E2020EDB2A030E01E3DB2A7B
:100AB000EBD7040EE15C03E200D0E16AE552E16E9F
:080AC000E552E7CFD9FF120057
:080AC800060EF66E000EF76E3B
:100AD000000EF86E00010900F550856F0900F55011
:100AE000866F03E1856701D03DD00900F550806F26
:100AF0000900F550816F0900F550826F0900090067
:100B0000F550E96E0900F550EA6E09000900090088
:100B1000F550836F0900F550846F09000900F6CF86
:100B200087F0F7CF88F0F8CF89F080C0F6FF81C05A
:100B3000F7FF82C0F8FF0001835302E1845307E00E
:100B40000900F550EE6E8307F8E28407F9D787C0F5
:100B5000F6FF88C0F7FF89C0F8FF00018507000E87
:060B6000865BBFD7120006
:0A0B6600D9CFE6FFDACFE6FFE1CFBA
:100B7000D9FFE2CFDAFFAC6AAB6AFD0EDBB0AC881E
:100B8000DBA202D0AC8CAB8CDBB4AC8EDBA602D08B
:100B9000AB8801D0AB8ADBB8AC849E98DBBAAB865D
:100BA000DBAC02D09D8A01D09D9A9E9ADBAE02D02A
:100BB0009D8801D09D98FB0EDB50AF6EFB0EFC0EA6
:100BC000DBCF15F015C014F0156A1450B06EAC8A66
:100BD000AB8E949C948EAC50100B04E0AC50800B08
:100BE00001E1948CE552E5CFDAFFE7CFD9FF12009F
:100BF00006500B02F3CF02F0F4CF03F00C02F350D7
:100C00000326000EF420046E06500D02F350042655
:100C1000000EF420056E06500E02F3500526075014
:100C20000B02F3500326F4500422000E0522075055
:100C30000C02F3500426F450052207500D02F35025
:100C4000052608500B02F3500426F45005220850E4
:100C50000C02F350052609500B02F3500526120032
:100C6000D9CFE6FFDACFE6FFE1CFD9FFE2CFDAFF57
:100C7000E652E652DF6AFB0EDB50DF5C18E29EAA0A
:100C8000FED783EC06F0E76E010EE7CFDBFFFC0E2C
:100C9000DBCFE9FFFD0EDBCFEAFF010EDBCFEFFF7D
:100CA000FC0EDB2AFD0E01E3DB2ADF2AE4D7E55246
:0E0CB000E552E552E5CFDAFFE7CFD9FF12009B
:020CBE00056AC5
:100CC000046A036A026A200EE76ED8900636073679
:100CD0000836093602360336043605360B50025CF8
:100CE0000C5003580D5004580E50055809E30B5092
:100CF000025E0C50035A0D50045A0E50055A062A33
:060D0000E72EE4D712000B
:0A0D0600D9CFE6FFDACFE6FFE1CF18
:100D1000D9FFE2CFDAFFE652F20E0101F917ABACD0
:100D200003D0F991ABB0F981ABB4F985ABB2F987D7
:100D3000AE50DF6EDF50E552E552E5CFDAFFE7CF88
:040D4000D9FF1200C5
:0C0D440008C012F008500D02F4CF07F0B8
:100D5000F3CF06F009500E02F4CF09F0F3CF08F0FC
:100D60000D02F3500726F4500822E86A09221250B7
:100D70000E02F3500726F4500822E86A0922000CFC
:100D8000056A046A100EE76ED890083609360436F4
:100D900005360D50045C0E50055805E30D50045EF9
:0C0DA0000E50055A082AE72EF0D712006A
:040DAC00000EF36ED4
:100DB00000EE00F0060E01D81200EA6002D0EE6AE2
:0C0DC000FCD7F350E9601200EE6AFCD78B
:040DCC0015EE00F030
:100DD00025EE00F0F86A019C64EC05F0FBEC06F0EF
:080DE0009EEC02F0FBD71200AB
:080DE800496E696369616C69E1
:060DF000747A616E7400CC
:020DF6001200E9
:010DF80000FA
:020000040030CA
:0100010002FC
:010002001FDE
:010003001EDE
:0100050003F7
:010006008178
:010008000FE8
:01000900C036
:01000A000FE6
:01000B00E014
:01000C000FE4
:01000D0040B2
:00000001FF
